:03000000020008F3
:0300610002000397
:0500030012010880FE5F
:20006400758920759850758DFD758BFDD28E2210980280FB8599822285829910990280FBD6
:200084002253A01FE590759000227F017E017D00BD0500505B8DF005F074108002C313D580
:2000A400F0FBFCF4FB529020A0088F0330A0FD8B822220A109EF04FB30A1FD8B822220A2B7
:2000C4000A74022FFB30A2FD8B822220A30A74032FFB30A3FD8B822220A40A74042FFB3067
:2000E400A4FD8B822274052EFEFFEC42900D80A075820022AF82742F2FF58222AF82744003
:200104002FF5822212006412008512008EE582F50860F785088212010012007C9001F41264
:20012400012880E6AE82AF837C007D00C3EC9EED64808FF063F08095F050147A7B7B001AEE
:10014400BAFF011BEA4B70F70CBC00E00D80DD2206
:06003700E478FFF6D8FD9D
:200015007900E94400601B7A00900158780075A000E493F2A308B8000205A0D9F4DAF27539
:02003500A0FF2A
:20003D007800E84400600A790075A000E4F309D8FC7800E84400600C7900900000E4F0A3C3
:04005D00D8FCD9FAF8
:0D000800758108120154E5826003020003B7
:04015400758200228E
:00000001FF
